:100000000C947A030C94A2030C94A2030C94A20304
:100010000C94A2030C94A2030C94A2030C94A203CC
:100020000C94A2030C94A2030C94A2030C94A203BC
:100030000C94A2030C94A2030C94A2030C94A203AC
:100040000C9494090C94A2030C94A2030C94A203A4
:100050000C94A2030C94A2030C94A2030C94A2038C
:100060000C94A2030C94A2030000000025002800B9
:100070002B0000000000240027002A0000000000E0
:1000800023002600290004040404040404040202DA
:100090000202020203030303030301020408102007
:1000A0004080010204081020010204081020000012
:1000B0000008000201000003040700000000000027
:1000C0000000000000000000000000000000000030
:1000D0000000000000000000000000000000000020
:1000E00000000000000000000080E0F0781C1C0C04
:1000F0000E0E0C9C9C3870E4CE070200000000003D
:1001000000000000000000000000000000000000EF
:1001100000000000000000000000000000000000DF
:1001200000000000000000000000000000000000CF
:10013000000000000080C0E0E07070707067E7C1F0
:10014000C00000C0C0F81E0F83C0E07F3F0E00005B
:10015000000000000000000000000000000000009F
:10016000000000000000000000000000000000008F
:10017000000000000000000000000000000000007F
:1001800000000000000000383F1F81E0F03C3E0707
:100190000300000080F8FE1F0700000103010000BB
:1001A000000000000000000000000000000000004F
:1001B000000000000000000000000000000000003F
:1001C000000000000000000000000000000000002F
:1001D0000000000000000000000010381C0F0703A2
:1001E000080C0C0C0C0C06060703010000000000B4
:1001F00000000000000000000000000000000000FF
:1002000000000000000000000000000000000000EE
:1002100000000000000000000000000000000000DE
:1002200040C00000000000000000000000000000CE
:100230000000000000F878E00000E078F80000001E
:10024000000000000080E03838E080000000C0E0DE
:100250006060E0C00000E0E000FCFC000000000086
:10026000000000000000000000000000000000008E
:1002700000000020303F2121331E00818FF910093A
:10028000070100000000000C0F0700030707030030
:10029000070F0C000C0C00080E0707010107070EE2
:1002A00008000F0F00000F0F00000F0F000F0F00CE
:1002B00000000000000000000000FEFFFFFFFEFB4A
:1002C000FFFFFFFB0002F902000000FF000000003A
:1002D000FF00000000FF000000803F8000FEFEFFE6
:1002E000FEFE048A8A8A8A8A8A8A8A8A8A8A8A8A0C
:1002F0008A8A8A8A8A8A8A8A8A8A8A8A8A8A8A8A5E
:100300008A8A8A8A8A8A8A8A8A8A8A8A8A8A8A8A4D
:100310008A8A8A8A8A8A8A8A8A8A8A8A8A04F9FAE4
:10032000FAFAFAFAFAFAFAFAFAFAFAFAFAFAFAFA2D
:10033000FAFAFAFAFAFAFAFAFAFAFAFAFAFAFAFA1D
:10034000FAFAFAFAFAFAFAFAFAFAFAFAFAFAFAFA0D
:10035000FAFAFAFAFAFAFAFAFAF9F9FBFFFBF9FCF7
:10036000FEFFFEFCE4EEFFFFEEE40608205F000067
:10037000000000000000002F000000000700070040
:1003800000147F147F1400242A7F2A1200231308EC
:100390006462003649552250000005030000000049
:1003A0001C224100000041221C000014083E0814D9
:1003B0000008083E0808000000A0600000080808C7
:1003C0000808000060600000002010080402003EE1
:1003D0005149453E0000427F40000042615149467C
:1003E000002141454B31001814127F10002745456C
:1003F0004539003C4A49493000017109050300367E
:100400004949493600064949291E00003636000090
:100410000000563600000008142241000014141495
:100420001414000041221408000201510906003290
:100430004959513E007C1211127C007F49494936CE
:10044000003E41414122007F4141221C007F494939
:100450004941007F09090901003E4149497A007F6D
:100460000808087F0000417F4100002040413F0113
:10047000007F08142241007F40404040007F020C72
:10048000027F007F0408107F003E4141413E007F13
:1004900009090906003E4151215E007F09192946DC
:1004A0000046494949310001017F0101003F4040B8
:1004B000403F001F2040201F003F4038403F006366
:1004C0001408146300070870080700615149454388
:1004D00000007F414100AA55AA55AA55000041419C
:1004E0007F00000402010204004040404040000040
:1004F00003050000002054545478007F48444438D9
:1005000000384444442000384444487F0038545460
:10051000541800087E0901020018A4A4A47C007FDE
:10052000080404780000447D4000004080847D0081
:10053000007F102844000000417F4000007C041828
:100540000478007C0804047800384444443800FCF3
:10055000242424180018242418FC007C080404080F
:1005600000485454542000043F444020003C404084
:10057000207C001C2040201C003C4030403C0044BB
:1005800028102844001CA0A0A07C004464544C44C3
:100590000000107C8200000000FF00000000827C50
:1005A0001000000006090906F9FAFCFAF9FCFAF94C
:1005B000FAFCF1EAE4E4EAF1F8F8F0FCFCF0FEFE03
:1005C000F0FFFFFFFFFFFFFFFFFFF9F9F9FFF60460
:1005D00006205F00000003A000C00C00F94F806BF4
:1005E000EB00988C8052A58003000001C88089C070
:1005F0000050850021C20008400020820000200039
:10060000188C00FA2F804BE0805A66808AA500E0A3
:100610008F80EAAB0072A9009A8C00FAAF804AA7DB
:1006200000014000094000214880514500894200F6
:1006300042660072A6807A8780FAA500722500FAC9
:100640002700FAA880FA8800722B00F88F808BE8C8
:10065000808BE800F88D80F82080F90F80F9CF803A
:10066000722700FA8400722740FA85804AA9008325
:10067000E800F02F00E06E00F0EF00D88D80C0ECB5
:10068000009AAC8003E880C081808BE000420400C7
:10069000082080020400312380F9230031248031B6
:1006A0002F8031628023EA00255380F9038002E025
:1006B0000006E000F8428003E0007987803903807B
:1006C0003123007D23003127C07884002940004376
:1006D000E40070270060660070670048C4807457AB
:1006E0008059E68023E8800360008BE200610C0003
:1006F000F50F811011241FBECFEFD8E0DEBFCDBFB4
:1007000011E0A0E0B1E0EAE9FCE202C005900D9240
:10071000AE39B107D9F723E0AEE9B1E001C01D92CF
:10072000AE3EB207E1F713E0C9E7D3E004C021977A
:10073000FE010E943914C837D107C9F70E94DE09AB
:100740000C9440160C940000EFEEF1E0119283E05F
:10075000E73EF807D9F708959091E501E091DF01B0
:10076000F091E0012081909592239083E091DB014C
:10077000F091DC019091E3012081611130C09095EE
:100780009223908328E0E091D901F091DA019091D1
:10079000E201308187FF25C0932B9083880F9091D1
:1007A000E101E091D701F091D80130819095932338
:1007B000908300009091E101E091D701F091D80180
:1007C0003081932B90832150F1F68091E501E091E7
:1007D000DF01F091E0019081892B80830895922BB5
:1007E000D0CF90959323D9CFCF93DF938091E70318
:1007F000811112C060E080E40E94AC0360E080E8F8
:100800000E94AC03CFEED1E061E089910E94AC037D
:1008100083E0C73ED807C1F7DF91CF9108958435B3
:100820009105F8F460337105E0F49B0143E03695DF
:1008300027954A95E1F744E5429FF001439FF00D6B
:100840001124E80FF91FE952FE4F6770772721E066
:1008500030E001C0220F6A95EAF72095808D2823A9
:10086000208F089584359105F0F460337105D8F434
:100870009B0143E0369527954A95E1F744E5429F71
:10088000F001439FF00D1124E80FF91FE952FE4FCC
:100890006770772721E030E001C0220F6A95EAF700
:1008A000808D822B808F08952F923F924F925F927E
:1008B0006F927F928F929F92AF92BF92CF92DF9270
:1008C000EF92FF920F931F93CF93DF9300D000D04E
:1008D000CDB7DEB75C0149016B837C83D12CC12C81
:1008E000C9018A0D9B1D9A8389831A012A183B0826
:1008F000C60123E0959587952A95E1F7889D3001FB
:10090000899D700C989D700C1124C60187709927E1
:1009100044244394512C02C0440C551C8A95E2F7A0
:100920007501620C731CF301EE0DFF1DE491F0E004
:10093000E421F5216B817C81C701EF2B61F10E94DD
:1009400032049FEFE91AF90A89819A818E159F0571
:1009500051F79FEFC91AD90A8B819C8101969C831C
:100960008B830C151D0521F60F900F900F900F90A3
:10097000DF91CF911F910F91FF90EF90DF90CF907B
:10098000BF90AF909F908F907F906F905F904F90AF
:100990003F902F9008950E940F04D3CFA7EDB1E0B0
:1009A00052969C938E935197FC01249153962C93CD
:1009B00053973196E4915496EC935497FC013296F8
:1009C000E4915596EC9355970396FC0184915696C5
:1009D0008C93569757961C9208952F923F924F9260
:1009E0005F926F927F928F929F92AF92BF92CF92BF
:1009F000DF92EF92FF920F931F93CF93DF9300D07C
:100A000000D0CDB7DEB79C838B838B017A011901AF
:100A1000CA012B813C81821B930B97FD09C0922D4B
:100A2000832D1B01092F182F8F2D79014B838C8368
:100A3000C8018219930997FD0BC0902F812F810166
:100A4000292E382E9B818C81FC82EB82E92EF82E98
:100A50000215130509F041C04B815C81E416F506CF
:100A60002CF09E2D8F2D7A019B838C8354E5E51607
:100A7000F10408F0BEC00033110509F4BAC0C80182
:100A800023E0959587952A95E1F744E5489F9001E5
:100A9000499F300D11242E0D3F1D0770112781E055
:100AA00001C0880F0A95EAF7F901E952FE4F6B8100
:100AB0007C816E197F097A836983AF01421B530BD6
:100AC000475D514069817A81461757070CF091C004
:100AD000908D982B908F3196F0CF8B819C818E15C5
:100AE0009F0531F5201631062CF0922D832D18012B
:100AF000092F182F2B813C812435310508F079C04E
:100B000030E32316310408F074C0F12CE12C0219F3
:100B10001309E016F1060CF06CC0B701620D731DED
:100B20008B819C810E9432044FEFE41AF40AF1CFCA
:100B3000B101601B710B7A83698367018B819C8192
:100B4000C81AD90AB6010D2C000C880B990B0E940B
:100B500068114B015C0129813A81B901330F880B7F
:100B6000990B0E9468112B013C01D7FE03C0D19460
:100B7000C194D10889819A8197FF03C0919581958D
:100B800091098C159D050CF06AC0A5019401C30163
:100B9000B2010E948C132B013C01B801110F880B8C
:100BA000990B0E9468114B015C014B815C81E4163A
:100BB000F506B4F520E030E040E05FE3C501B401A4
:100BC0000E9420130E94FE138B819C810E9432049C
:100BD000A3019201C501B4010E941F134B015C01E6
:100BE0006B817C81615071097C836B836E157F05FD
:100BF0000CF70F900F900F900F90DF91CF911F91F6
:100C00000F91FF90EF90DF90CF90BF90AF909F90AB
:100C10008F907F906F905F904F903F902F900895AE
:100C200020E030E040E05FE3C501B4010E94201302
:100C30000E94FE138B819C810E943204A3019201C9
:100C4000C501B4010E9420134B015C018B819C8182
:100C500001969C838B83E816F90614F7CACF2016F9
:100C600031063CF22B813C81B901330F880B990B83
:100C70000E9468116B017C0120E030E040E05FE3FE
:100C8000C701B6010E9420130E94FE13CB01B801D8
:100C90000E943204A3019201C501B4010E948C1389
:100CA0009B01AC01C701B6010E9420136B017C01BE
:100CB0000F5F1F4F20163106FCF69BCF089590E082
:100CC000FC01E255FF4F2491FC01E656FF4F3491A1
:100CD000FC01EA57FF4FE491EE23C1F1222339F0E2
:100CE0002330E9F090F4213001F1223011F1F0E0ED
:100CF000EE0FFF1FE458FF4FA591B491EC91E32351
:100D000081E090E029F580E008952730A9F02830AF
:100D1000C9F0243061F7809180008F7D03C08091FD
:100D200080008F7780938000E2CF84B58F7784BD79
:100D3000DECF84B58F7DFBCF8091B0008F7780931D
:100D4000B000D5CF8091B0008F7DF9CF80E090E0EA
:100D50000895CF93DF9390E0FC01E656FF4F249176
:100D60008A579F4FFC0184918823D1F090E0880F2F
:100D7000991FFC01EE58FF4FA591B491FC01E85971
:100D8000FF4FC591D49161110EC09FB7F8948C911B
:100D9000E22FE0958E238C932881E223E8839FBF86
:100DA000DF91CF9108958FB7F894EC91E22BEC93FB
:100DB0008FBFF6CF3FB7F8948091A3019091A40123
:100DC000A091A501B091A60126B5A89B05C02F3F13
:100DD00019F00196A11DB11D3FBFBA2FA92F982F61
:100DE0008827BC01CD01620F711D811D911D42E05C
:100DF000660F771F881F991F4A95D1F708958F9224
:100E00009F92AF92BF92CF92DF92EF92FF924B01EF
:100E10005C010E94DA066B017C010E94DA066C1903
:100E20007D098E099F09683E734081059105A8F3ED
:100E300021E0821A9108A108B10888EEC80E83E06B
:100E4000D81EE11CF11C81149104A104B10429F7FE
:100E5000FF90EF90DF90CF90BF90AF909F908F90DA
:100E600008952F923F924F925F926F927F928F924E
:100E70009F92AF92BF92CF92DF92EF92FF920F9329
:100E80001F93CF93DF93CDB7DEB728970FB6F894B3
:100E9000DEBF0FBECDBF78876F835C834B83FC01C1
:100EA00001900020E9F731971F01281A390A6F30A5
:100EB000774209F083C04091EA01429D9001439D31
:100EC000300D112444E550E0421B530B58874F83EB
:100ED0009A838983712C612C621473040CF012C103
:100EE0009091EA01969D7001979DF00C11242F813D
:100EF0003885E20EF31EE981FA812191FA83E983B4
:100F00008091EB013091EC01231B330B482F47708C
:100F100009F08EC0869586958695899FC00111241B
:100F2000829FA001839F500D929F500D11249A0122
:100F30002C5F3F4F3E832D834B805C80B12CA12CD6
:100F40008091EB018695869586958A151B0409F09C
:100F50000CF4D4C08D809E8087012091EA01C801E5
:100F60008E199F092817190609F00CF45AC0D12CC4
:100F7000C12C8091EA018A9DF0018B9DF00D112416
:100F8000CF01880D991DE091E801F091E901E80F8A
:100F9000F91FE4918091EE01B601640D751DF0E03A
:100FA0000C2C02C0F595E7950A94E2F7E0FF26C005
:100FB000811126C0C8010E94320425C0EF81F88546
:100FC000EE30F74209F084CF4091EA01429D900152
:100FD000439D300D112444E550E0421B530B5A83CE
:100FE000498357FF04C04F5F5F4F5A834983E981AC
:100FF000FA81F595E795F887EF836ACF8111DACF0B
:10100000C8010E940F043FEFC31AD30A48E0C41678
:10101000D10409F0AECF0F5F1F4F5FEF851A950A1D
:101020009CCF8FEFA81AB80A98E0490E511C88CFC0
:10103000989FC001112443E0959587954A95E1F763
:10104000829F6001839FD00C929FD00C1124E4E01A
:10105000CE0ED11CE091E801F091E901EC0DFD1DEF
:10106000E4914E2E512C870157E0A52EB12C2091F2
:10107000EA01C8018E199F092817190609F00CF416
:101080003DC0912C812C8091EB018815190499F1B8
:1010900094F18091EE016B817C81680D791D920144
:1010A0000A2C02C0359527950A94E2F720FF06C066
:1010B000811106C0C8010E94320405C08111FACF17
:1010C000C8010E940F04F1E0AF1AB108B7FE0FC0CB
:1010D0002FEFC21AD20AE091E801F091E901EC0D7C
:1010E000FD1DE4914E2E512C87E0A82EB12C3FEF30
:1010F000831A930AC8CF0F5F1F4FB9CF4FEF641AFF
:10110000740AEACE28960FB6F894DEBF0FBECDBFA4
:10111000DF91CF911F910F91FF90EF90DF90CF90D3
:10112000BF90AF909F908F907F906F905F904F9007
:101130003F902F900895AF92BF92CF92DF92EF929F
:10114000FF920F931F93CF93DF93CDB7DEB75B0171
:10115000CDB6DEB6FC010481158198012F5F3F4FAB
:101160004DB75EB7421B530B0FB6F8945EBF0FBE70
:101170004DBFEDB7FEB731967F01232B21F001154E
:101180001105B9F41082A5016FE077E2C7010E9452
:1011900031070FB6F894DEBE0FBECDBEDF91CF9102
:1011A0001F910F91FF90EF90DF90CF90BF90AF9085
:1011B0000895FC0160817181A801C7010E94311668
:1011C000F701E00FF11FDECF0F931F93CF93DF9353
:1011D0008C01EB01FC01808191810097E1F0688135
:1011E000798161157105A9F0428153812C813D817E
:1011F0004217530770F00E942A168C819D81F801D6
:10120000958384831D821C82DF91CF911F910F9162
:1012100008950E94DB1488819981F801918380836D
:101220008A819B81938382838C819D819583848332
:10123000198218821B821A82E5CFEF92FF920F93D8
:101240001F93CF93DF93EC017B018A018881998101
:10125000009729F02A813B812417350788F4B801CB
:101260006F5F7F4F0E946415009791F09983888388
:101270001B830A832C813D81232B11F4FC011082F6
:101280001D830C83B701888199810E942A160CC0A6
:1012900088819981009711F00E94DB1419821882CD
:1012A0001D821C821B821A82CE01DF91CF911F9179
:1012B0000F91FF90EF900895EF92FF920F931F937D
:1012C000CF93DF93CDB7DEB762970FB6F894DEBF4A
:1012D0000FBECDBF8C01CB01F801118210821382A9
:1012E0001282158214824AE09E012F5F3F4F7901DE
:1012F000B9010E943111F70101900020E9F73197FF
:10130000AF014E195F09B701C8010E941D0962961D
:101310000FB6F894DEBF0FBECDBFDF91CF911F9106
:101320000F91FF90EF9008951F920F920FB60F92BA
:1013300011242F933F938F939F93AF93BF938091EB
:101340009F019091A001A091A101B091A2013091C3
:101350009E0123E0230F2D3758F50196A11DB11DE5
:1013600020939E0180939F019093A001A093A101DF
:10137000B093A2018091A3019091A401A091A50135
:10138000B091A6010196A11DB11D8093A301909378
:10139000A401A093A501B093A601BF91AF919F9125
:1013A0008F913F912F910F900FBE0F901F90189526
:1013B00026E8230F0296A11DB11DD2CFCF93DF9354
:1013C00000D000D000D0CDB7DEB7789484B582606D
:1013D00084BD84B5816084BD85B5826085BD85B5D9
:1013E000816085BD80916E00816080936E00109257
:1013F00081008091810082608093810080918100D2
:101400008160809381008091800081608093800062
:101410008091B10084608093B1008091B0008160C0
:101420008093B00080917A00846080937A008091EC
:101430007A00826080937A0080917A008160809344
:101440007A0080917A00806880937A001092C100BF
:1014500060E082E00E94A90660E083E00E94A906A5
:1014600060E084E00E94A90660E085E00E94A90691
:1014700060E086E00E94A90660E087E00E94A9067D
:1014800060E08DE00E94A9068091E301E091DB011C
:10149000F091DC019081892B80838091E201E091C1
:1014A000D901F091DA019081892B80838091E1014B
:1014B000E091D701F091D8019081892B80838091B0
:1014C000E501E091DF01F091E0019081892B8083BB
:1014D0008091E401E091DD01F091DE019081809541
:1014E000892380836AE070E080E090E00E94FF063C
:1014F0008091E401E091DD01F091DE019081892B82
:10150000808360E081E20E94AC0360E086EC0E9490
:10151000AC0360E086E00E94AC0360E083E10E94DF
:10152000AC0360E080E20E94AC0360E080E40E94D3
:10153000AC0360E080E80E94AC0360E08CE00E94B5
:10154000AC030E94A4030E94F4031092E9011092DC
:10155000E8011092E70386E490E09093E90380931A
:10156000E8038AE693E00E94CE0487E480937C003F
:1015700080917A00806480937A0080917A0086FD61
:10158000FCCF8091780060917900762F682F072E2C
:10159000000C880B990B611571058105910511F0FF
:1015A0000E94281100E310E024E530E042EC50E016
:1015B00070E060E090E080E00E94540460910601D9
:1015C00070910701072E000C880B990B0E9468117F
:1015D00021EE3AE744E15FE30E94C7116B017C0111
:1015E000C092AF01D092B001E092B101F092B2018D
:1015F00020E030E0A9010E94341420E030E040E017
:101600005FE387FD87C1C701B6010E9420130E94D6
:10161000FE137093B6016093B5016091040170915F
:101620000501072E000C880B990B0E94681121EE12
:101630003AE744E15FE30E94C7116B017C01C0926D
:10164000AB01D092AC01E092AD01F092AE0120E08E
:1016500030E0A9010E94341420E030E040E05FE374
:1016600087FD5DC1C701B6010E9420130E94FE13D1
:101670007093B4016093B3010E94F40360EB74E0D3
:1016800080E090E00E94FF060E94A40382E00E9496
:101690005F067C019093D6018093D50183E00E9480
:1016A0005F066C019093D4018093D30184E00E9483
:1016B0005F065C019093D2018093D10185E00E9486
:1016C0005F062C019093D0018093CF0186E00E94A9
:1016D0005F061C019093CE018093CD0187E00E94AC
:1016E0005F063C019093CC018093CB018DE00E947A
:1016F0005F064C019093CA018093C9018FEC95E07D
:101700000E94CE040E94A40304E010E02CE030E02C
:1017100043EC55E070E060E090E080E00E9454040B
:101720002BE030E048EB55E070E060E089E490E0C9
:101730000E94540450E040E06EE077E282E291E0E3
:101740000E94310726E030E044E550E066E070E0BA
:1017500090E080E00E94ED0441E0E416F10409F01D
:10176000E8C08091C7019091C801892B99F48091BC
:101770000801909109010196843091050CF0D4C0C4
:10178000909309018093080181E090E09093C80153
:101790008093C701809108019091090182309105E1
:1017A00009F413C18330910509F41CC3019709F0B2
:1017B00054C244E150E070E060E08CE291E00E94AD
:1017C000310744E150E06FE077E283E391E00E946B
:1017D000310705E010E023E030E045EB55E064E13F
:1017E00070E090E080E00E94540423E030E042EB9F
:1017F00055E064E170E080E290E00E94540403E070
:1018000010E025E030E04DEA55E064E170E08FE261
:1018100090E00E94540425E030E048EA55E065E19C
:1018200070E08FE490E00E9454048AE693E00E9406
:10183000CE0421E230E049E250E069E070E089E264
:1018400090E00E94ED0423E230E044E550E063E2E2
:1018500070E090E080E00E94ED0420E330E04BE196
:1018600050E063E270E08BE190E00E94ED0420E341
:1018700030E049E350E063E270E089E390E00E94E9
:10188000ED0447E250E070E060E08AE391E00E94FE
:10189000310747E250E06EE077E28FE391E00E948B
:1018A000310747E250E06FE077E283E491E00E9485
:1018B000310791E06916710409F043C07092C601C6
:1018C0006092C5018091C5019091C601019769F4AC
:1018D00091E09093EE0147E250E070E060E08AE32F
:1018E00091E00E9431071092EE018091C301909126
:1018F000C401019709F0AFC141E04093EE0147E216
:1019000050E06EE077E28FE391E00E9431071092A1
:10191000EE01A1C1C701B6010E941F1378CEC70115
:10192000B6010E941F13A2CEF0920901E0920801B5
:101930002BCFEF2809F02ECF1092C8011092C701CB
:1019400029CF41E08416910429F49092C401809239
:10195000C301B8CF4A94452869F405E010E023E0BC
:1019600030E047E653E064E170E080E290E00E94FE
:101970005404A8CF2A94232859F405E010E023E06A
:1019800030E044E653E064E170E090E080E0EFCFC7
:10199000CA94CD2859F403E010E025E030E04FE58B
:1019A00053E064E170E08FE290E0E1CFAA94AB28CD
:1019B00009F088CF03E010E025E030E04AE553E08D
:1019C00065E170E08FE490E0D2CF60910601709104
:1019D0000701CE0101960E945C09BE016F5F7F4F37
:1019E0008DEB91E00E94E40889819A810E94DB14CA
:1019F0006091040170910501CE0101960E945C097D
:101A0000BE016F5F7F4F87EB91E00E94E408898100
:101A10009A810E94DB148FEC95E00E94CE0444E191
:101A200050E070E060E088E491E00E94310744E11A
:101A300050E06FE077E28FE491E00E94310705E02B
:101A400010E023E030E045EB55E064E170E090E029
:101A500080E00E94540423E030E042EB55E064E172
:101A600070E080E290E00E94540403E010E025E082
:101A700030E04DEA55E064E170E08FE290E00E94D2
:101A8000540425E030E048EA55E065E170E08FE479
:101A900090E00E94540421E230E049E250E069E025
:101AA00070E089E290E00E94ED0423E230E044E53A
:101AB00050E063E270E090E080E00E94ED0445E2D7
:101AC00050E070E060E08BE491E00E9431074BE26F
:101AD00050E070E060E086E591E00E9431071A82F4
:101AE00019821C821B821E821D826091BD01709131
:101AF000BE016115710541F04091C1015091C201D3
:101B0000CE0101960E941D0965E270E0CE010196AA
:101B10000E949B0889819A810E94DB141A82198293
:101B20001C821B821E821D826091B7017091B801D8
:101B30006115710541F04091BB015091BC01CE018E
:101B400001960E941D096BE270E0CE0101960E9491
:101B50009B0889819A810E94DB140BE010E02CE342
:101B600030E042EE52E065E270E08CE090E00E94EE
:101B700054044091B5015091B601435F5F4F27E295
:101B800030E067E270E08DE090E00E94ED0440916B
:101B9000B3015091B401435F5F4F2DE230E06DE23D
:101BA00070E08DE090E00E94ED048091CF01909173
:101BB000D001019709F059C0E0900601F0900701AB
:101BC00084E6E816F10408F050C005E010E023E0D8
:101BD00030E047E653E064E170E080E290E00E948C
:101BE00054049FEFE91AF90AF0920701E092060106
:101BF00021EE3AE744E15FE36091AF017091B001FB
:101C00008091B1019091B2010E9420136B017C017F
:101C1000C092AF01D092B001E092B101F092B20156
:101C200020E030E0A9010E94341420E030E040E0E0
:101C30005FE387FD4AC0C701B6010E9420130E94DE
:101C4000FE137093B6016093B50162E370E080E02B
:101C500090E00E94FF060E94F40380E090E0892B50
:101C600009F414CD0E94000011CD8091CD01909116
:101C7000CE01019779F5E0900601F090070141E06F
:101C8000E41AF10884E6E816F10420F505E010E016
:101C900023E030E044E653E064E170E090E080E06F
:101CA0000E945404F0920701E092060121EE3AE707
:101CB00044E15FE36091AF017091B0018091B101A7
:101CC0009091B2010E941F13A1CFC701B6010E94DB
:101CD0001F13B5CF8091D3019091D401019709F0E2
:101CE0004AC0E0900401F090050194E6E916F10481
:101CF00008F041C003E010E025E030E04FE553E09C
:101D000064E170E08FE290E00E9454044FEFE41A27
:101D1000F40AF0920501E092040121EE3AE744E171
:101D20005FE36091AB017091AC018091AD01909146
:101D3000AE010E9420136B017C01C092AB01D092D6
:101D4000AC01E092AD01F092AE0120E030E0A901DB
:101D50000E94341420E030E040E05FE387FD3DC0A6
:101D6000C701B6010E9420130E94FE137093B401B4
:101D70006093B3016ACF8091D1019091D201019714
:101D800009F069CFE0900401F090050181E0E81AC4
:101D9000F10894E6E916F10408F05DCF03E010E0E5
:101DA00025E030E04AE553E065E170E08FE490E043
:101DB0000E945404F0920501E092040121EE3AE7FA
:101DC00044E15FE36091AB017091AC018091AD01A2
:101DD0009091AE010E941F13AECFC701B6010E94C1
:101DE0001F13C2CF0E94A40304E010E02CE030E0F7
:101DF00043EC55E070E060E090E080E00E94540425
:101E00002BE030E048EB55E070E060E089E490E0E2
:101E10000E94540450E040E06EE077E28AE591E0F1
:101E20000E94310726E030E044E550E066E070E0D3
:101E300090E080E00E94ED0409E210E025E030E04F
:101E400044EC52E067E070E08FE490E00E945404BC
:101E5000E0900201F09003010BE010E025E030E09B
:101E60004AEB52E0B7018FE490E00E9454048AE606
:101E700093E00E94CE048091A9019091AA01209143
:101E8000000130910101AA94AB2809F089C0863085
:101E900091050CF085C001969093AA018093A90149
:101EA0002530310534F42F5F3F4F309301012093EB
:101EB00000010597029748F48091A7019091A8012D
:101EC00001969093A8018093A70184E0E80EF11C8D
:101ED000F0920301E092020166E970E080E090E098
:101EE0000E94FF06E090A701F090A801F701EE0F15
:101EF000FF1FEC5EFE4F48E050E06EE077E280812D
:101F000091810E943107F701EE0FFF1FEA5EFE4F3D
:101F100040E150E06EE077E2808191810E943107DC
:101F2000F701EE0FFF1FE85EFE4F48E150E06EE064
:101F300077E2808191810E943107F701EE0FFF1F48
:101F4000E65EFE4F40E250E06EE077E280819181F4
:101F50000E943107F701EE0FFF1FE45EFE4F48E2DB
:101F600050E06EE077E2808191810E94310791E03C
:101F70009093EE01409100015091010163E0440F04
:101F8000551F6A95E1F7E091A901F091AA01EE0FC2
:101F9000FF1FEC5EFE4F6EE077E280819181B5CC51
:101FA000CA94CD2809F09ECF181619060CF09ACFC6
:101FB00001979093AA018093A9012230310534F052
:101FC00021503109309301012093000102974CF414
:101FD0008091A7019091A80101979093A801809307
:101FE000A70184E0E81AF10873CFCF93DF93EEE8FE
:101FF000F0E0E491F0E0EE0FFF1FE859FF4F85910C
:102000009491C7EDD1E099838883E2EAF0E0E4910E
:10201000EA87EFE8F0E0E491F0E0EE0FFF1FE85907
:10202000FF4F859194919B838A83E3EAF0E0E491EA
:10203000EB87E0E9F0E0E491F0E0EE0FFF1FE859F4
:10204000FF4F859194919D838C83E4EAF0E0E491C5
:10205000EC87E1E9F0E0E491F0E0EE0FFF1FE859D2
:10206000FF4F859194919F838E83E5EAF0E0E491A0
:10207000ED87E2E9F0E0E491F0E0EE0FFF1FE859B0
:10208000FF4F8591949199878887E6EAF0E0E49183
:10209000EE8761E088E00E94A90661E089E00E9485
:1020A000A90661E08AE00E94A90661E08BE00E9437
:1020B000A90661E08CE00E94A90688E08F878BE08A
:1020C000888BEDEBF1E0118210821382128215826F
:1020D000148250E040E065E571E0CF010E941D09E7
:1020E000E7EBF1E0118210821382128215821482D2
:1020F00050E040E065E571E0CF01DF91CF910C94B5
:102100001D098091B7019091B8010E94DB14809164
:10211000BD019091BE010C94DB148F929F92AF92FF
:10212000BF92CF92DF92EF92FF92CF93DF93EC01B9
:10213000688179818A819B8161157105810591058D
:1021400021F464E279ED8BE597E02DE133EF41E096
:1021500050E00E94851249015A019B01AC01A7EA97
:10216000B1E40E94A4126B017C01ACEEB4EFA501B6
:1021700094010E94B212C60ED71EE81EF91EF7FE89
:1021800006C081E0C81AD108E10880E8F80AC882D0
:10219000D982EA82FB82C701B6019F77DF91CF9196
:1021A000FF90EF90DF90CF90BF90AF909F908F9077
:1021B00008958F929F92AF92BF92CF92DF92EF924B
:1021C000FF9260910A0170910B0180910C01909136
:1021D0000D01611571058105910521F464E279ED28
:1021E0008BE597E02DE133EF41E050E00E9485124E
:1021F00049015A019B01AC01A7EAB1E40E94A41273
:102200006B017C01ACEEB4EFA50194010E94B21207
:10221000C60ED71EE81EF91EF7FE06C081E0C81ADA
:10222000D108E10880E8F80AC0920A01D0920B01B7
:10223000E0920C01F0920D01C701B6019F77FF906B
:10224000EF90DF90CF90BF90AF909F908F900895C8
:1022500060930A0170930B0180930C0190930D0120
:102260000895BB274A3031F4992322F4BDE29095BA
:1022700081959F4F0C943D11BB27FB015527AA2741
:10228000880F991FAA1FA41710F0A41B8395505103
:10229000B9F7A05DAA3308F0A95DA193009779F77B
:1022A000B111B1931192CB010C945611DC01FC01D8
:1022B000672F71917723E1F7329704C07C916D937A
:1022C00070836291AE17BF07C8F30895E89409C000
:1022D00097FB3EF490958095709561957F4F8F4F59
:1022E0009F4F9923A9F0F92F96E9BB279395F6956F
:1022F000879577956795B795F111F8CFFAF4BB0FED
:1023000011F460FF1BC06F5F7F4F8F4F9F4F16C050
:10231000882311F096E911C0772321F09EE8872FDA
:10232000762F05C0662371F096E8862F70E060E096
:102330002AF09A95660F771F881FDAF7880F96950F
:10234000879597F90895990F0008550FAA0BE0E8B3
:10235000FEEF16161706E807F907C0F01216130667
:10236000E407F50798F0621B730B840B950B39F4A7
:102370000A2661F0232B242B252B21F408950A260D
:1023800009F4A140A6958FEF811D811D08950E943B
:10239000DA110C944B120E943D1238F00E94441244
:1023A00020F0952311F00C9434120C943A1211245D
:1023B0000C947F120E945C1270F3959FC1F3950FED
:1023C00050E0551F629FF001729FBB27F00DB11DB9
:1023D000639FAA27F00DB11DAA1F649F6627B00D49
:1023E000A11D661F829F2227B00DA11D621F739F32
:1023F000B00DA11D621F839FA00D611D221F749F40
:102400003327A00D611D231F849F600D211D822F86
:10241000762F6A2F11249F5750409AF0F1F08823AD
:102420004AF0EE0FFF1FBB1F661F771F881F9150DA
:102430005040A9F79E3F510580F00C9434120C9443
:102440007F125F3FE4F3983ED4F3869577956795C6
:10245000B795F795E7959F5FC1F7FE2B880F911D04
:102460009695879597F9089597F99F6780E870E0AA
:1024700060E008959FEF80EC089500240A941616FA
:10248000170618060906089500240A941216130662
:10249000140605060895092E0394000C11F48823F0
:1024A00052F0BB0F40F4BF2B11F460FF04C06F5F0C
:1024B0007F4F8F4F9F4F089557FD9058440F551FE2
:1024C00059F05F3F71F04795880F97FB991F61F0B6
:1024D0009F3F79F087950895121613061406551F2D
:1024E000F2CF4695F1DF08C0161617061806991F99
:1024F000F1CF86957105610508940895E894BB278E
:1025000066277727CB0197F90895052E97FB1EF4D0
:1025100000940E949C1257FD07D00E94EE1207FC07
:1025200003D04EF40C949C12509540953095219513
:102530003F4F4F4F5F4F08959095809570956195EF
:102540007F4F8F4F9F4F08950E941013A59F900DAE
:10255000B49F900DA49F800D911D11240895B7FF85
:102560000C94A4120E94A412821B930B08952F9224
:102570003F924F925F926F927F928F929F92AF9213
:10258000BF92CF92DF92EF92FF920F931F93CF9360
:10259000DF93CDB7DEB7CA1BDB0B0FB6F894DEBFF7
:1025A0000FBECDBF09942A88398848885F846E841D
:1025B0007D848C849B84AA84B984C884DF80EE8067
:1025C000FD800C811B81AA81B981CE0FD11D0FB670
:1025D000F894DEBF0FBECDBFED010895A1E21A2E23
:1025E000AA1BBB1BFD010DC0AA1FBB1FEE1FFF1FB7
:1025F000A217B307E407F50720F0A21BB30BE40B07
:10260000F50B661F771F881F991F1A9469F760954D
:102610007095809590959B01AC01BD01CF01089507
:10262000A29FB001B39FC001A39F700D811D112413
:10263000911DB29F700D811D1124911D0895505858
:10264000BB27AA270E9437130C944B120E943D12FD
:1026500038F00E94441220F039F49F3F19F426F418
:102660000C943A120EF4E095E7FB0C943412E92F27
:102670000E945C1258F3BA17620773078407950724
:1026800020F079F4A6F50C947E120EF4E0950B2E52
:10269000BA2FA02D0B01B90190010C01CA01A001B4
:1026A0001124FF27591B99F0593F50F4503E68F10F
:1026B0001A16F040A22F232F342F4427585FF3CF50
:1026C000469537952795A795F0405395C9F77EF421
:1026D0001F16BA0B620B730B840BBAF09150A1F06A
:1026E000FF0FBB1F661F771F881FC2F70EC0BA0FF0
:1026F000621F731F841F48F4879577956795B79578
:10270000F7959E3F08F0B0CF9395880F08F0992772
:10271000EE0F9795879508950E94A0130C944B1285
:102720000E94441258F00E943D1240F029F45F3F8D
:1027300029F00C94341251110C947F120C943A121B
:102740000E945C1268F39923B1F3552391F3951B12
:10275000550BBB27AA2762177307840738F09F5FC2
:102760005F4F220F331F441FAA1FA9F335D00E2E2F
:102770003AF0E0E832D091505040E695001CCAF79C
:102780002BD0FE2F29D0660F771F881FBB1F26175F
:1027900037074807AB07B0E809F0BB0B802DBF0136
:1027A000FF2793585F4F3AF09E3F510578F00C9405
:1027B00034120C947F125F3FE4F3983ED4F3869575
:1027C00077956795B795F7959F5FC9F7880F911D26
:1027D0009695879597F90895E1E0660F771F881F12
:1027E000BB1F621773078407BA0720F0621B730BC5
:1027F000840BBA0BEE1F88F7E09508950E9405142C
:102800006894B1110C947F1208950E94641288F0AC
:102810009F5798F0B92F9927B751B0F0E1F0660FA4
:10282000771F881F991F1AF0BA95C9F714C0B130E5
:1028300091F00E947E12B1E008950C947E12672FF1
:10284000782F8827B85F39F0B93FCCF38695779514
:102850006795B395D9F73EF49095809570956195FD
:102860007F4F8F4F9F4F08950E94A31108F48FEF61
:102870000895EE0FFF1F0590F491E02D09940F933A
:102880001F93CF93DF938230910510F482E090E0A4
:10289000E091EC03F091ED0330E020E0B0E0A0E047
:1028A000309799F42115310509F44AC0281B390BDA
:1028B00024303105D8F58A819B816115710589F134
:1028C000FB0193838283FE0111C04081518102810B
:1028D000138148175907E0F04817590799F41097E2
:1028E00061F012960C93129713961C933296CF01B7
:1028F000DF91CF911F910F9108950093EC031093F6
:10290000ED03F4CF2115310551F04217530738F08C
:10291000A901DB019A01BD01DF01F801C1CFEF017F
:10292000F9CF9093ED038093EC03CDCFFE01E20F3E
:10293000F31F819391932250310939832883D7CF94
:102940002091EA033091EB03232B41F420911001F5
:10295000309111013093EB032093EA0320910E0193
:1029600030910F012115310541F42DB73EB740914B
:10297000120150911301241B350BE091EA03F091F1
:10298000EB03E217F307A0F42E1B3F0B28173907C0
:1029900078F0AC014E5F5F4F2417350748F04E0FBB
:1029A0005F1F5093EB034093EA03819391939FCF72
:1029B000F0E0E0E09CCFCF93DF930097E9F0FC01DB
:1029C000329713821282A091EC03B091ED03ED01D6
:1029D00030E020E01097A1F420813181820F931F15
:1029E0002091EA033091EB032817390709F061C001
:1029F000F093EB03E093EA03DF91CF910895EA01AE
:102A0000CE17DF07E8F54A815B819E01411551052C
:102A1000B1F7E901FB83EA8349915991C40FD51FAE
:102A2000EC17FD0761F4808191810296840F951F58
:102A3000E90199838883828193819B838A83F0E073
:102A4000E0E012968D919C9113970097B9F52D9126
:102A50003C911197CD010296820F931F2091EA03BA
:102A60003091EB032817390739F6309751F510925A
:102A7000ED031092EC03B093EB03A093EA03BCCFF9
:102A8000D383C28340815181840F951FC817D90712
:102A900061F44E5F5F4F88819981480F591F5183C0
:102AA00040838A819B81938382832115310509F0BC
:102AB000B0CFF093ED03E093EC039ECFFD01DC017A
:102AC000C0CF13821282D7CFB0E0A0E0EAE6F5E1F2
:102AD0000C94B9128C01009751F4CB010E943F1461
:102AE0008C01C801CDB7DEB7E0E10C94D512FC0132
:102AF000E60FF71F9C0122503109E217F30708F493
:102B00009DC0D901CD91DC911197C617D70798F0D8
:102B1000C530D10530F3CE0104978617970708F327
:102B2000C61BD70B2297C193D1936D937C93CF0192
:102B30000E94DB14D6CF5B01AC1ABD0A4C018C0E8F
:102B40009D1EA091EC03B091ED03512C412CF12C72
:102B5000E12C109731F58091EA039091EB038815F1
:102B6000990509F05CC04616570608F058C08091D8
:102B70000E0190910F01009741F48DB79EB74091DF
:102B8000120150911301841B950BE817F90708F007
:102B900055C0F093EB03E093EA03F901718360837E
:102BA000A0CF8D919C91119712966C9012971396CD
:102BB0007C901397A815B90559F56C0142E0C40E35
:102BC000D11CCA14DB0420F1AC014A195B09DA01FB
:102BD0001296159780F06282738251834083D901E7
:102BE0006D937C93E114F10471F0D7011396FC937B
:102BF000EE93129776CF22968C0F9D1FF901918349
:102C00008083F301EFCFF093ED03E093EC0369CF02
:102C10004816590608F42C017D01D3019ACFCB0147
:102C20000E943F147C01009749F0AE01B8010E9458
:102C30002116C8010E94DB14870153CF10E000E089
:102C400050CFFB01DC0102C001900D924150504079
:102C5000D8F70895FB01DC0101900D920020E1F707
:102C60000895FB01DC014150504048F001900D9265
:102C70000020C9F701C01D9241505040E0F708956F
:102C800013E0C9E7D3E004C0FE010E943914219685
:0A2C9000CA37D107C9F7F894FFCF47
:102C9A0001000A00320032000100010000000000B9
:102CAA00EE03800063016B0176017E0189019101C7
:102CBA0097016564656C6B726F6E65002020205009
:102CCA00414E00544C542020200020203120002066
:102CDA00322000203320200020202053504400417D
:102CEA004343202020004143430073657474696E96
:102CFA0067730067656E6572616C00636F6E6E65FF
:102D0A006374696F6E0064657669636573006272E5
:102D1A00696768746E657373006772617068696366
:0E2D2A000072657365740061626F757400005D
:00000001FF
